{
  "address": "0xCb29EcfD0a6c5DEb4f40F3AE3FD3DDa9A2A1B995",
  "abi": [
    {
      "inputs": [],
      "stateMutability": "nonpayable",
      "type": "constructor"
    },
    {
      "anonymous": false,
      "inputs": [
        {
          "indexed": true,
          "internalType": "address",
          "name": "safe",
          "type": "address"
        },
        {
          "indexed": true,
          "internalType": "address",
          "name": "buyer",
          "type": "address"
        }
      ],
      "name": "Bought",
      "type": "event"
    },
    {
      "anonymous": false,
      "inputs": [
        {
          "indexed": true,
          "internalType": "address",
          "name": "safe",
          "type": "address"
        },
        {
          "indexed": false,
          "internalType": "uint256",
          "name": "price",
          "type": "uint256"
        }
      ],
      "name": "ListedForSale",
      "type": "event"
    },
    {
      "anonymous": false,
      "inputs": [
        {
          "indexed": true,
          "internalType": "bytes32",
          "name": "metadataHash",
          "type": "bytes32"
        },
        {
          "indexed": false,
          "internalType": "bytes",
          "name": "data",
          "type": "bytes"
        }
      ],
      "name": "Metadata",
      "type": "event"
    },
    {
      "anonymous": false,
      "inputs": [
        {
          "indexed": true,
          "internalType": "address",
          "name": "safe",
          "type": "address"
        },
        {
          "indexed": false,
          "internalType": "address",
          "name": "oldOwner",
          "type": "address"
        },
        {
          "indexed": false,
          "internalType": "address",
          "name": "newOwner",
          "type": "address"
        }
      ],
      "name": "OwnerReplaced",
      "type": "event"
    },
    {
      "inputs": [
        {
          "internalType": "contract ISafeProtocolManager",
          "name": "_manager",
          "type": "address"
        },
        {
          "internalType": "contract ISafe",
          "name": "_safe",
          "type": "address"
        }
      ],
      "name": "buy",
      "outputs": [
        {
          "internalType": "bytes",
          "name": "data",
          "type": "bytes"
        }
      ],
      "stateMutability": "nonpayable",
      "type": "function"
    },
    {
      "inputs": [
        {
          "internalType": "contract ISafeProtocolManager",
          "name": "manager",
          "type": "address"
        },
        {
          "internalType": "contract ISafe",
          "name": "safe",
          "type": "address"
        },
        {
          "components": [
            {
              "components": [
                {
                  "internalType": "address payable",
                  "name": "to",
                  "type": "address"
                },
                {
                  "internalType": "uint256",
                  "name": "value",
                  "type": "uint256"
                },
                {
                  "internalType": "bytes",
                  "name": "data",
                  "type": "bytes"
                }
              ],
              "internalType": "struct SafeProtocolAction[]",
              "name": "actions",
              "type": "tuple[]"
            },
            {
              "internalType": "uint256",
              "name": "nonce",
              "type": "uint256"
            },
            {
              "internalType": "bytes32",
              "name": "metadataHash",
              "type": "bytes32"
            }
          ],
          "internalType": "struct SafeTransaction",
          "name": "safetx",
          "type": "tuple"
        }
      ],
      "name": "executeFromPlugin",
      "outputs": [
        {
          "internalType": "bytes[]",
          "name": "data",
          "type": "bytes[]"
        }
      ],
      "stateMutability": "nonpayable",
      "type": "function"
    },
    {
      "inputs": [
        {
          "internalType": "uint256",
          "name": "_price",
          "type": "uint256"
        }
      ],
      "name": "listForSale",
      "outputs": [],
      "stateMutability": "nonpayable",
      "type": "function"
    },
    {
      "inputs": [],
      "name": "metadataHash",
      "outputs": [
        {
          "internalType": "bytes32",
          "name": "",
          "type": "bytes32"
        }
      ],
      "stateMutability": "view",
      "type": "function"
    },
    {
      "inputs": [],
      "name": "metadataProvider",
      "outputs": [
        {
          "internalType": "uint256",
          "name": "providerType",
          "type": "uint256"
        },
        {
          "internalType": "bytes",
          "name": "location",
          "type": "bytes"
        }
      ],
      "stateMutability": "view",
      "type": "function"
    },
    {
      "inputs": [],
      "name": "name",
      "outputs": [
        {
          "internalType": "string",
          "name": "",
          "type": "string"
        }
      ],
      "stateMutability": "view",
      "type": "function"
    },
    {
      "inputs": [],
      "name": "requiresRootAccess",
      "outputs": [
        {
          "internalType": "bool",
          "name": "",
          "type": "bool"
        }
      ],
      "stateMutability": "view",
      "type": "function"
    },
    {
      "inputs": [
        {
          "internalType": "bytes4",
          "name": "interfaceId",
          "type": "bytes4"
        }
      ],
      "name": "supportsInterface",
      "outputs": [
        {
          "internalType": "bool",
          "name": "",
          "type": "bool"
        }
      ],
      "stateMutability": "view",
      "type": "function"
    },
    {
      "inputs": [],
      "name": "version",
      "outputs": [
        {
          "internalType": "string",
          "name": "",
          "type": "string"
        }
      ],
      "stateMutability": "view",
      "type": "function"
    }
  ],
  "args": [],
  "numDeployments": 1,
  "solcInputHash": "b2bcac9ab583b41d4286f3b9cf8144b9",
  "bytecode": "0x60c06040523480156200001157600080fd5b506040518060a001604052806040518060400160405280600b81526020017f4e61746120506c7567696e00000000000000000000000000000000000000000081525081526020016040518060400160405280600581526020017f312e302e3000000000000000000000000000000000000000000000000000000081525081526020016001151581526020016040518060200160405280600081525081526020016040518060400160405280601781526020017f68747470733a2f2f6e6174612e76657263656c2e617070000000000000000000815250815250808060000151600090816200010091906200048b565b508060200151600190816200011691906200048b565b50806040015115156080811515815250506200013d81620001a460201b620007011760201c565b8051906020012060a081815250505060a0517f522c683f99251eea7f3b027592e92a5398e7582983be1f7c0f33715ce025740f6200018683620001a460201b620007011760201c565b6040516200019591906200060c565b60405180910390a250620007e2565b606060008083600001518460200151856040015186606001518760800151604051602001620001d89594939291906200069f565b604051602081830303815290604052604051602001620001fb93929190620007a3565b6040516020818303038152906040529050919050565b600081519050919050565b7f4e487b7100000000000000000000000000000000000000000000000000000000600052604160045260246000fd5b7f4e487b7100000000000000000000000000000000000000000000000000000000600052602260045260246000fd5b600060028204905060018216806200029357607f821691505b602082108103620002a957620002a86200024b565b5b50919050565b60008190508160005260206000209050919050565b60006020601f8301049050919050565b600082821b905092915050565b600060088302620003137fffffffffffffffffffffffffffffffffffffffffffffffffffffffffffffffff82620002d4565b6200031f8683620002d4565b95508019841693508086168417925050509392505050565b6000819050919050565b6000819050919050565b60006200036c62000366620003608462000337565b62000341565b62000337565b9050919050565b6000819050919050565b62000388836200034b565b620003a0620003978262000373565b848454620002e1565b825550505050565b600090565b620003b7620003a8565b620003c48184846200037d565b505050565b5b81811015620003ec57620003e0600082620003ad565b600181019050620003ca565b5050565b601f8211156200043b576200040581620002af565b6200041084620002c4565b8101602085101562000420578190505b620004386200042f85620002c4565b830182620003c9565b50505b505050565b600082821c905092915050565b6000620004606000198460080262000440565b1980831691505092915050565b60006200047b83836200044d565b9150826002028217905092915050565b620004968262000211565b67ffffffffffffffff811115620004b257620004b16200021c565b5b620004be82546200027a565b620004cb828285620003f0565b600060209050601f831160018114620005035760008415620004ee578287015190505b620004fa85826200046d565b8655506200056a565b601f1984166200051386620002af565b60005b828110156200053d5784890151825560018201915060208501945060208101905062000516565b868310156200055d578489015162000559601f8916826200044d565b8355505b6001600288020188555050505b505050505050565b600081519050919050565b600082825260208201905092915050565b60005b83811015620005ae57808201518184015260208101905062000591565b60008484015250505050565b6000601f19601f8301169050919050565b6000620005d88262000572565b620005e481856200057d565b9350620005f68185602086016200058e565b6200060181620005ba565b840191505092915050565b60006020820190508181036000830152620006288184620005cb565b905092915050565b600082825260208201905092915050565b60006200064e8262000211565b6200065a818562000630565b93506200066c8185602086016200058e565b6200067781620005ba565b840191505092915050565b60008115159050919050565b620006998162000682565b82525050565b600060a0820190508181036000830152620006bb818862000641565b90508181036020830152620006d1818762000641565b9050620006e260408301866200068e565b8181036060830152620006f6818562000641565b905081810360808301526200070c818462000641565b90509695505050505050565b600060ff82169050919050565b60008160f81b9050919050565b60006200073f8262000725565b9050919050565b6200075b620007558262000718565b62000732565b82525050565b600081905092915050565b6000620007798262000572565b62000785818562000761565b9350620007978185602086016200058e565b80840191505092915050565b6000620007b1828662000746565b600182019150620007c3828562000746565b600182019150620007d582846200076c565b9150819050949350505050565b60805160a05161125562000808600039600061064f0152600061062b01526112556000f3fe608060405234801561001057600080fd5b50600436106100935760003560e01c8063ad7fadc511610066578063ad7fadc514610134578063be193d2714610164578063c5a1d7f014610182578063c7857fb5146101a0578063d3d72d2a146101bc57610093565b806301ffc9a7146100985780630227bad3146100c857806306fdde03146100f857806354fd4d5014610116575b600080fd5b6100b260048036038101906100ad91906107d6565b6101db565b6040516100bf919061081e565b60405180910390f35b6100e260048036038101906100dd919061090b565b6102ad565b6040516100ef9190610acc565b60405180910390f35b6101006102bc565b60405161010d9190610b43565b60405180910390f35b61011e61034a565b60405161012b9190610b43565b60405180910390f35b61014e60048036038101906101499190610b65565b6103d8565b60405161015b9190610bef565b60405180910390f35b61016c610629565b604051610179919061081e565b60405180910390f35b61018a61064d565b6040516101979190610c2a565b60405180910390f35b6101ba60048036038101906101b59190610c7b565b610671565b005b6101c46106c2565b6040516101d2929190610cb7565b60405180910390f35b60007f3fce835e000000000000000000000000000000000000000000000000000000007bffffffffffffffffffffffffffffffffffffffffffffffffffffffff1916827bffffffffffffffffffffffffffffffffffffffffffffffffffffffff191614806102a657507f01ffc9a7000000000000000000000000000000000000000000000000000000007bffffffffffffffffffffffffffffffffffffffffffffffffffffffff1916827bffffffffffffffffffffffffffffffffffffffffffffffffffffffff1916145b9050919050565b60606000839050509392505050565b600080546102c990610d16565b80601f01602080910402602001604051908101604052809291908181526020018280546102f590610d16565b80156103425780601f1061031757610100808354040283529160200191610342565b820191906000526020600020905b81548152906001019060200180831161032557829003601f168201915b505050505081565b6001805461035790610d16565b80601f016020809104026020016040519081016040528092919081815260200182805461038390610d16565b80156103d05780601f106103a5576101008083540402835291602001916103d0565b820191906000526020600020905b8154815290600101906020018083116103b357829003601f168201915b505050505081565b6060600060019050600033905060007313370000000000000000000000000000000000009050600083838360405160240161041593929190610d56565b6040516020818303038152906040527fe318b52b000000000000000000000000000000000000000000000000000000007bffffffffffffffffffffffffffffffffffffffffffffffffffffffff19166020820180517bffffffffffffffffffffffffffffffffffffffffffffffffffffffff83818316178352505050509050600060405180606001604052808873ffffffffffffffffffffffffffffffffffffffff168152602001600081526020018381525090506000604051806060016040528083815260200160008152602001600080191681525090508873ffffffffffffffffffffffffffffffffffffffff166330f571f989836040518363ffffffff1660e01b8152600401610529929190610ecb565b6000604051808303816000875af1158015610548573d6000803e3d6000fd5b505050506040513d6000823e3d601f19601f820116820180604052508101906105719190611021565b96508773ffffffffffffffffffffffffffffffffffffffff167fc0f702ee865bb9620cf6bc5c77eba7c58496654d164d19ebf850253e6971779986866040516105bb92919061106a565b60405180910390a23373ffffffffffffffffffffffffffffffffffffffff163073ffffffffffffffffffffffffffffffffffffffff167fe1b1aef187b1032371495a2ea75d2885dd9f5fa05e30b54c4fc6839795c60afe60405160405180910390a350505050505092915050565b7f000000000000000000000000000000000000000000000000000000000000000081565b7f000000000000000000000000000000000000000000000000000000000000000081565b3073ffffffffffffffffffffffffffffffffffffffff167fd8e128775b7d140e398e926eac4a340f22911251358cb8069551f12bc0f5ab61826040516106b79190611093565b60405180910390a250565b600060606003808111156106d9576106d86110ae565b5b9150306040516020016106ec91906110dd565b60405160208183030381529060405290509091565b6060600080836000015184602001518560400151866060015187608001516040516020016107339594939291906110f8565b604051602081830303815290604052604051602001610754939291906111e6565b6040516020818303038152906040529050919050565b6000604051905090565b600080fd5b600080fd5b60007fffffffff0000000000000000000000000000000000000000000000000000000082169050919050565b6107b38161077e565b81146107be57600080fd5b50565b6000813590506107d0816107aa565b92915050565b6000602082840312156107ec576107eb610774565b5b60006107fa848285016107c1565b91505092915050565b60008115159050919050565b61081881610803565b82525050565b6000602082019050610833600083018461080f565b92915050565b600073ffffffffffffffffffffffffffffffffffffffff82169050919050565b600061086482610839565b9050919050565b600061087682610859565b9050919050565b6108868161086b565b811461089157600080fd5b50565b6000813590506108a38161087d565b92915050565b60006108b482610859565b9050919050565b6108c4816108a9565b81146108cf57600080fd5b50565b6000813590506108e1816108bb565b92915050565b600080fd5b600060608284031215610902576109016108e7565b5b81905092915050565b60008060006060848603121561092457610923610774565b5b600061093286828701610894565b9350506020610943868287016108d2565b925050604084013567ffffffffffffffff81111561096457610963610779565b5b610970868287016108ec565b9150509250925092565b600081519050919050565b600082825260208201905092915050565b6000819050602082019050919050565b600081519050919050565b600082825260208201905092915050565b60005b838110156109e05780820151818401526020810190506109c5565b60008484015250505050565b6000601f19601f8301169050919050565b6000610a08826109a6565b610a1281856109b1565b9350610a228185602086016109c2565b610a2b816109ec565b840191505092915050565b6000610a4283836109fd565b905092915050565b6000602082019050919050565b6000610a628261097a565b610a6c8185610985565b935083602082028501610a7e85610996565b8060005b85811015610aba5784840389528151610a9b8582610a36565b9450610aa683610a4a565b925060208a01995050600181019050610a82565b50829750879550505050505092915050565b60006020820190508181036000830152610ae68184610a57565b905092915050565b600081519050919050565b600082825260208201905092915050565b6000610b1582610aee565b610b1f8185610af9565b9350610b2f8185602086016109c2565b610b38816109ec565b840191505092915050565b60006020820190508181036000830152610b5d8184610b0a565b905092915050565b60008060408385031215610b7c57610b7b610774565b5b6000610b8a85828601610894565b9250506020610b9b858286016108d2565b9150509250929050565b600082825260208201905092915050565b6000610bc1826109a6565b610bcb8185610ba5565b9350610bdb8185602086016109c2565b610be4816109ec565b840191505092915050565b60006020820190508181036000830152610c098184610bb6565b905092915050565b6000819050919050565b610c2481610c11565b82525050565b6000602082019050610c3f6000830184610c1b565b92915050565b6000819050919050565b610c5881610c45565b8114610c6357600080fd5b50565b600081359050610c7581610c4f565b92915050565b600060208284031215610c9157610c90610774565b5b6000610c9f84828501610c66565b91505092915050565b610cb181610c45565b82525050565b6000604082019050610ccc6000830185610ca8565b8181036020830152610cde8184610bb6565b90509392505050565b7f4e487b7100000000000000000000000000000000000000000000000000000000600052602260045260246000fd5b60006002820490506001821680610d2e57607f821691505b602082108103610d4157610d40610ce7565b5b50919050565b610d5081610859565b82525050565b6000606082019050610d6b6000830186610d47565b610d786020830185610d47565b610d856040830184610d47565b949350505050565b6000819050919050565b6000610db2610dad610da884610839565b610d8d565b610839565b9050919050565b6000610dc482610d97565b9050919050565b6000610dd682610db9565b9050919050565b610de681610dcb565b82525050565b6000610df782610839565b9050919050565b610e0781610dec565b82525050565b610e1681610c45565b82525050565b6000606083016000830151610e346000860182610dfe565b506020830151610e476020860182610e0d565b5060408301518482036040860152610e5f82826109fd565b9150508091505092915050565b610e7581610c11565b82525050565b60006060830160008301518482036000860152610e988282610e1c565b9150506020830151610ead6020860182610e0d565b506040830151610ec06040860182610e6c565b508091505092915050565b6000604082019050610ee06000830185610ddd565b8181036020830152610ef28184610e7b565b90509392505050565b600080fd5b600080fd5b7f4e487b7100000000000000000000000000000000000000000000000000000000600052604160045260246000fd5b610f3d826109ec565b810181811067ffffffffffffffff82111715610f5c57610f5b610f05565b5b80604052505050565b6000610f6f61076a565b9050610f7b8282610f34565b919050565b600067ffffffffffffffff821115610f9b57610f9a610f05565b5b610fa4826109ec565b9050602081019050919050565b6000610fc4610fbf84610f80565b610f65565b905082815260208101848484011115610fe057610fdf610f00565b5b610feb8482856109c2565b509392505050565b600082601f83011261100857611007610efb565b5b8151611018848260208601610fb1565b91505092915050565b60006020828403121561103757611036610774565b5b600082015167ffffffffffffffff81111561105557611054610779565b5b61106184828501610ff3565b91505092915050565b600060408201905061107f6000830185610d47565b61108c6020830184610d47565b9392505050565b60006020820190506110a86000830184610ca8565b92915050565b7f4e487b7100000000000000000000000000000000000000000000000000000000600052602160045260246000fd5b60006020820190506110f26000830184610d47565b92915050565b600060a08201905081810360008301526111128188610b0a565b905081810360208301526111268187610b0a565b9050611135604083018661080f565b81810360608301526111478185610b0a565b9050818103608083015261115b8184610b0a565b90509695505050505050565b600060ff82169050919050565b60008160f81b9050919050565b600061118c82611174565b9050919050565b6111a461119f82611167565b611181565b82525050565b600081905092915050565b60006111c0826109a6565b6111ca81856111aa565b93506111da8185602086016109c2565b80840191505092915050565b60006111f28286611193565b6001820191506112028285611193565b60018201915061121282846111b5565b915081905094935050505056fea26469706673582212208e3809a6a7da281e310b8d00496e76e2518f133d6337dcbfc4d99c448b27b3e964736f6c63430008120033",
  "devdoc": {
    "kind": "dev",
    "methods": {
      "executeFromPlugin(address,address,((address,uint256,bytes)[],uint256,bytes32))": {
        "params": {
          "manager": "Address of the Safe{Core} Protocol Manager.",
          "safe": "Safe account",
          "safetx": "SafeTransaction to be executed"
        }
      },
      "metadataProvider()": {
        "returns": {
          "location": "bytes",
          "providerType": "uint256 Type of metadata provider"
        }
      },
      "supportsInterface(bytes4)": {
        "details": "Returns true if this contract implements the interface defined by `interfaceId`. See the corresponding https://eips.ethereum.org/EIPS/eip-165#how-interfaces-are-identified[EIP section] to learn more about how these ids are created. This function call must use less than 30 000 gas."
      }
    },
    "title": "NataPlugin maintains a mapping that stores information about accounts that are        permitted to execute non-root transactions through a Safe account.",
    "version": 1
  },
  "userdoc": {
    "kind": "user",
    "methods": {
      "executeFromPlugin(address,address,((address,uint256,bytes)[],uint256,bytes32))": {
        "notice": "Executes a Safe transaction if the caller is whitelisted for the given Safe account."
      },
      "metadataProvider()": {
        "notice": "A function that returns information about the type of metadata provider and its location.         For more information on metadata provider, refer to https://github.com/safe-global/safe-core-protocol-specs/."
      },
      "name()": {
        "notice": "A funtion that returns name of the plugin"
      },
      "requiresRootAccess()": {
        "notice": "A function that indicates if the plugin requires root access to a Safe."
      },
      "version()": {
        "notice": "A function that returns version of the plugin"
      }
    },
    "notice": "This plugin does not need Safe owner(s) confirmation(s) to execute Safe txs once enabled         through a Safe{Core} Protocol Manager.",
    "version": 1
  },
  "storageLayout": {
    "storage": [
      {
        "astId": 10854,
        "contract": "src/NataPlugin.sol:NataPlugin",
        "label": "name",
        "offset": 0,
        "slot": "0",
        "type": "t_string_storage"
      },
      {
        "astId": 10856,
        "contract": "src/NataPlugin.sol:NataPlugin",
        "label": "version",
        "offset": 0,
        "slot": "1",
        "type": "t_string_storage"
      }
    ],
    "types": {
      "t_string_storage": {
        "encoding": "bytes",
        "label": "string",
        "numberOfBytes": "32"
      }
    }
  }
}